:100000000C942A000C9447000C9447000C94470071
:100010000C9447000C9447000C9447000C94470044
:100020000C9447000C9447000C9447000C94470034
:100030000C9447000C9447000C9447000C94470024
:100040000C9447000C9447000C9447000C94470014
:100050000C94470011241FBECFE5D4E0DEBFCDBF16
:1000600010E0A0E6B0E0E4EFF1E002C005900D92F0
:10007000A036B107D9F710E0A0E6B0E001C01D92AC
:10008000A036B107E1F70E9449000C94F8000C94E7
:1000900000009F92AF92BF92CF92DF92EF92FF92B9
:1000A0000F931F938FEF8ABB84BB40E828EC30E0AE
:1000B000F0EC9F2EE0EEBE2E70EFA72E68EFD62E4E
:1000C0005CEFC52E9EEFE92E5FEF80E4F82E11E87D
:1000D00003E8B7E87FE8AFE96FEB4BBB45BB84EFC4
:1000E00091E0F9013197F1F70197D9F795BA84EFCB
:1000F00091E0F9013197F1F70197D9F7B5BA84EF9B
:1001000091E0F9013197F1F70197D9F7A5BA84EF9A
:1001100091E0F9013197F1F70197D9F7D5BA84EF5A
:1001200091E0F9013197F1F70197D9F7C5BA84EF5A
:1001300091E0F9013197F1F70197D9F7E5BA84EF2A
:1001400091E0F9013197F1F70197D9F755BB84EFA9
:1001500091E0F9013197F1F70197D9F715BA88EED7
:1001600093E0F9013197F1F70197D9F7FBBA45BB55
:1001700084EF91E0F9013197F1F70197D9F715BBB9
:1001800084EF91E0F9013197F1F70197D9F705BBB9
:1001900084EF91E0F9013197F1F70197D9F7B5BBF9
:1001A00084EF91E0F9013197F1F70197D9F775BB29
:1001B00084EF91E0F9013197F1F70197D9F7A5BBE9
:1001C00084EF91E0F9013197F1F70197D9F765BB19
:1001D00084EF91E0F9013197F1F70197D9F755BB19
:1001E00084EF91E0F9013197F1F70197D9F775CFD5
:0401F000F894FFCFB1
:00000001FF
